:100000000C9434000C9449000C9449000C94490061
:100010000C9449000C9449000C9449000C9449003C
:100020000C9449000C9449000C9449000C9449002C
:100030000C9449000C9449000C9449000C9449001C
:100040000C9449000C9449000C9449000C9449000C
:100050000C9449000C9449000C9449000C944900FC
:100060000C9449000C94490011241FBECFEFD8E036
:10007000DEBFCDBF11E0A0E0B1E0E0E5F3E002C0FB
:1000800005900D92A038B107D9F70E947E000C941C
:10009000A6010C9400008093C4009093C500E2EC8C
:1000A000F0E086E48083808388ED8093C10008952A
:1000B00080E480937C0087E880937A000895909193
:1000C0007C00987F90937C0090917C008770892BB6
:1000D00080937C0080917A00806480937A00809184
:1000E0007A0084FFFCCF80917A00806180937A004F
:1000F0002091780030917900C90108950F931F93E2
:10010000DF93CF93CDB7DEB7A0970FB6F894DEBFDD
:100110000FBECDBF80E480937C0087E880937A0097
:10012000209A52985A9A5198599A809180008368DF
:1001300080938000809181008D6080938100219A5E
:1001400087E68093C4001092C50086E48093C200C5
:100150008093C20088ED8093C100BE016F5F7F4F26
:100160008E010E5F1F4F40E951E089B199B182FDC8
:1001700051C091FD4FC0289A80917C00887F809368
:100180007C0080917C0080937C0080917A00806468
:1001900080937A0080917A0084FFFCCF80917A006E
:1001A000806180937A00809178009091790090939B
:1001B00089008093880080918800909189008091C7
:1001C000880090918900893C910588F5DB01E0E089
:1001D000F1E080E201900D928150E1F7998199233D
:1001E00051F0F8018091C00085FFFCCF9093C600CC
:1001F00091919923B9F720E030E0CA010197F1F716
:100200002F5F3F4F87E0203D3807B9F789B199B19B
:1002100082FFAFCF289820E030E0CA010197F1F7C4
:100220002F5F3F4F87E0203D3807B9F79ECF809181
:10023000880090918900823D910540F1809188006D
:1002400090918900855F914008F5DB01E0E2F1E0E3
:1002500080E201900D928150E1F79981992351F04C
:10026000F8018091C00085FFFCCF9093C60091916A
:100270009923B9F720E030E0CA010197F1F72F5F29
:100280003F4F87E0203D3807B9F76FCF8091880056
:10029000909189008E5F914040F18091880090910B
:1002A00089008D5B924008F5DB01E0E4F1E080E23B
:1002B00001900D928150E1F79981992351F0F80155
:1002C0008091C00085FFFCCF9093C6009191992347
:1002D000B9F720E030E0CA010197F1F72F5F3F4FF7
:1002E00087E0203D3807B9F740CF80918800909192
:1002F0008900865C924008F438CF80918800909104
:1003000089008150944008F030CFDB01E0E6F1E055
:1003100080E201900D928150E1F79981992351F08B
:10032000F8018091C00085FFFCCF9093C6009191A9
:100330009923B9F720E030E0CA010197F1F72F5F68
:100340003F4F87E0203D3807B9F70FCFF894FFCF34
:1003500054656D7065726174757265203A32302033
:100360006465677265652043656C736975730A001F
:1003700054656D7065726174757265203A3235200E
:100380006465677265652043656C736975730A00FF
:1003900054656D7065726174757265203A323920EA
:1003A0006465677265652043656C736975730A00DF
:1003B00054656D7065726174757265203A333320CF
:1003C0006465677265652043656C736975730A00BF
:00000001FF
