:100000000C9434000C9449000C9449000C94490061
:100010000C9449000C9449000C9449000C9449003C
:100020000C9449000C9449000C9449000C9449002C
:100030000C9449000C9449000C9449000C9449001C
:100040000C9449000C9449000C9449000C9449000C
:100050000C9449000C9449000C9449000C944900FC
:100060000C9449000C94490011241FBECFEFD8E036
:10007000DEBFCDBF11E0A0E0B1E0E6EEF2E002C0ED
:1000800005900D92A432B107D9F70E9459000C9443
:1000900071010C940000209A52985A9A5198599ADA
:1000A0000E9432010E94580187E690E00E9464019C
:1000B0000895EF92FF920F931F93DF93CF93CDB7E5
:1000C000DEB729970FB6F894DEBF0FBECDBF0E94F2
:1000D0004B008E010F5F1F4F89E1E82EF12C4999EB
:1000E000B3C04A99B1C081E00E942F0180E00E9414
:1000F00039019093890080938800809188009091C5
:1001000089008091880090918900893C9105E0F4F4
:10011000D801E0E0F1E089E001900D928150E1F733
:10012000F80107C08091C00085FFFCCF9093C60006
:10013000319690819923B1F780E197E2F7013197E9
:10014000F1F70197D9F7CBCF809188009091890082
:10015000823D910518F18091880090918900855F1A
:100160009140E0F4D801E9E0F1E089E001900D92DE
:100170008150E1F7F80107C08091C00085FFFCCFF6
:100180009093C600319690819923B1F780E197E270
:10019000F7013197F1F70197D9F7A1CF8091880046
:1001A000909189008E5F914018F180918800909124
:1001B00089008D5B9240E0F4D801E2E1F1E089E052
:1001C00001900D928150E1F7F80107C08091C000C5
:1001D00085FFFCCF9093C600319690819923B1F7AB
:1001E00080E197E2F7013197F1F70197D9F777CFDF
:1001F0008091880090918900865C924008F46FCFCE
:1002000080918800909189008150944008F067CFD8
:10021000D801EBE1F1E089E001900D928150E1F726
:10022000F80107C08091C00085FFFCCF9093C60005
:10023000319690819923B1F780E197E2F7013197E8
:10024000F1F70197D9F74BCF80E00E942F0188E8A2
:1002500093E1F7013197F1F70197D9F740CF880F74
:1002600085B9089580E480937C0087E880937A00C4
:10027000089590917C00987F90937C0090917C00F1
:100280008770892B80937C0080917A0080648093B2
:100290007A0080917A0084FFFCCF80917A0080619F
:1002A00080937A002091780030917900C9010895F7
:1002B000E0E8F0E0808183688083E1E8F0E080811D
:1002C0008D608083219A08958093C4009093C50027
:1002D000E2ECF0E086E48083808388ED8093C100C7
:0602E0000895F894FFCF21
:1002E60054656D703A32300A0054656D703A323595
:1002F6000A0054656D703A32390A0054656D703AD9
:0403060033330A0083
:00000001FF
